:400000000080002011000000750700007507000080B500AF024A034B1B68136000F0DCFBBC760040FA46004010B5054C237833B9044B13B10448AFF300800123237010BD48
:40004000A081FF1F0000000054780000084B10B51BB108490848AFF300800848036803B910BD074B002BFBD0BDE81040184700BF00000000A481FF1F54780000C880FF1FBA
:400080000000000080B58CB000AF7860396042F23B03FB6040F60A53BB602849786805F0C1F903467B602549386805F0BBF903463B60786805F006FB0346FB62386805F064
:4000C00001FB0346BB6200F0DFFD0346002B31D000F0A6FF07F11C03FA6A1949184605F0C7FF07F11003BA6A1549184605F0C0FF07F10C0207F11C031146184605F0DCFF91
:4001000007F1100207F11C031146184605F0D4FF07F1080207F11C031146184605F0CCFF07F11C03184600F00DFF142002F0FCFF00F076FF00BF3037BD4680BD00007A4478
:40014000587800000000000090B587B000AF62B64F4B3B610023FB604FF00003BB6002F0AFFD03F035FD03F0C3F803F087F903F04BFA03F00FFB04F0E1FA002004F008FB5C
:4001800003F03EFD0021002002F0ACFD414802F0E1FD0721002002F0A5FD3F4802F0DAFD0121002000F0ACFB012003F039FD03F05DFD03467B617B69002B01DA00237B6132
:4001C0007B69DBB27D33FB717B69DBB24B33BB71FB79184603F01AF9BB79184603F0A2FA0021012002F07EFDFB79184602F02EFF0721012002F076FDBB79184602F026FF67
:4002000004F0D6FB0346002B02D0002004F0C0FA04F0DAFB0346002B01D0204B3B6104F0DFFB0346002B01D01C4B3B6104F09EFA0346FB60F86804F0A5FD11A3D3E9002301
:4002400004F006FE03460C46184621460EA3D3E9002304F027FF03460C461846214605F091F80346BB60B9683869FFF70BFF084B3B61142002F058FF96E700BFAFF30080AE
:40028000A7E8482EFF211940CD01278007209C40000038435C7800006478000000005C4380B582B000AF786039603A680021786805F065FA00BF0837BD4680BD80B584B059
:4002C00000AFF860B9607A607A68B968F86805F04BFA00BF1037BD4680BD00BF80B584B000AFF860B9607A607A68B968F86805F03BFA00BF1037BD4680BD00BF80B483B006
:4003000000AF0346FB71FEE780B487B000AF7860396000233B6100237B6127E07B699B007A6813441B68BB60BB68FB73BB6823F0FF03BB6014E03B695B003A6813441B786B
:400340001A46BB68134419463B695B003A6813445B780B703B6901333B61FB7B013BFB73FB7B002BE7D17B6901337B617B691E2BD4D900BF1C37BD4680BC704780B582B0D4
:4003800000AF484B00221A80474B50221A70474B3F221A80464B18221A70464B3F221A80454B18221A70454B3F221A80444B18221A70444B3F221A80434B18221A7008220B
:4003C00042494348FFF78AFF424B06221A70424B52221A70414B424A1278D2B21A70414B40F618021A80404B41F251221A800023FB7019237B6014E0FB785B00DAB23B4B34
:400400001B78DBB203F00103DBB21343DBB203F00303FB704FF4F07004F0EEFA7B68013B7B607B68002B02D0FB78032BE4D17B68002B02D10320FFF761FF2D4B4FF480721B
:400440001A802B4B07221A702A4B00221A702A4B48221A70264B00221A70284B00221A70274B02221A70274B04221A70264A264B1B78DBB243F01F03DBB21370234A234B70
:400480001B78DBB243F00203DBB21370204A204B1B78DBB263F07F03DBB2137000BF0837BD4680BD80400040824000408440004086400040884000408A4000408C40004092
:4004C0008E400040904000409240004074780000004100400043004000420040A14600400F01004922420040204200402542004004400040064000400840004009400040D2
:40050000014000400B400040A2430040A1430040A043004080B483B000AF0E4B1B78FB710D4AFB7903F00703DBB213700B4AFB791B09DBB213700A4B01221A70094B102278
:400540001A70094B44221A7000BF0C37BD4680BC704700BFCF0100496E5800406F5800400D510040005B00407658004080B483B000AF0346FB71FB79012B0ED8FB79094A71
:4005800052F82330FA79074951F822201178FA790548825C0A43D2B21A7000BF0C37BD4680BC7047687800007078000080B483B000AF0346FB71FB79012B10D8FB790A4AF3
:4005C00052F82330FA79084951F822201178FA790648825CD243D2B20A40D2B21A7000BF0C37BD4680BC7047687800007078000080B582B000AF72B6434B60221A70FFF768
:40060000BDFE414B00221A70404A404B1B78DBB243F00403DBB213700023FB7113E0FA7913465B0013445B00394A13443B603B681A683B689B889BB219461046FFF730FE67
:40064000FB790133FB71FB79072BE8D931493248FFF75AFE314B0A221A70314B01221A70304B314A1A60314A304B1B78DBB243F00203DBB213702E4A2D4B1B78DBB243F051
:400680000203DBB213702B4A2A4B1B78DBB243F04003DBB21370284A274B1B78DBB243F01003DBB21370082224492548FFF716FE0A2224492448FFF711FE0A22234924481F
:4006C000FFF70CFE082223492348FFF707FE082222492348FFF702FE082222492248FFF7FDFD224A214B1B78DBB243F00803DBB21370FFF70FFF0E220E491D48FFF7DEFD12
:4007000000BF0837BD4680BD00480040E84600407C78000028790000AC78000083580040075B0040580C0140040400840350014013500140A0430040C2430040587F000067
:4007400002510040607F0000F05100406C7F000010510040787F000022510040807F000042510040887F00005251004022430040B043004080B500AF04F0CAFF03461B684F
:400780000C2B00D1FEE7FEE780B584B000AF78600F4B1A687B6813441A460E4BD31A802B09DC0B4B1B68FB60094B1A687B681344074A136007E004F0ABFF02460C231360B4
:4007C0004FF0FF33FB60FB6818461037BD4680BDCC80FF1FD882FF1F80B586B000AF224B7B61224B3B61204B7B6135E03B691B68FB603B695B68BB603B699B683B600023D2
:400800007B600CE0FB681A68BB681A60BB680433BB60FB680433FB607B6804337B607A683B689A42EED13B69DB683B6000237B6008E0BB6800221A60BB680433BB607B6871
:4008400004337B607A683B689A42F2D13B6910333B617B69013B7B617B69002BC6D104F05DFFFFF771FCFEE7010000000083000080B582B000AF184B184A1A60184A184BE7
:400880001B6843F40073136000237B600FE07B68032B04D8134A7B6852F8233000E0124B12497A6841F822307B6801337B607B682F2BECD90E4B1B78DAB20E4B1A700E4B34
:4008C0000A4A1A60FFF794FE0C4B00221A6000BF0837BD4680BD00BF0CED00E00004FA0514ED00E000000000750700000080FF1FBC760040C480FF1F08ED00E0C080FF1FD4
:4009000080B582B000AF03460A46FB711346BB71094B1B78002B04D100F010F8064B01221A70BA79FB791146184600F0D9F800BF0837BD4680BD00BFBC81FF1F80B582B05E
:4009400000AF04F078F80346FB71544A534B1B78DBB243F00103DBB21370514A504B1B78DBB243F00103DBB213704E4B01221A704D4B02221A704D4A4C4B1B78DBB203F0A2
:400980007F03DBB21370002002F0F0FB484A484B1B78DBB223F00603DBB21370454A454B1B78DBB223F02003DBB21370404A404B1B78DBB243F00103DBB21370012002F023
:4009C000D5FB282002F0D2FB3B4A3B4B1B78DBB203F07F03DBB21370374A374B1B78DBB223F04003DBB21370314A314B1B78DBB243F00203DBB21370022002F0B7FB2C4A4C
:400A00002B4B1B78DBB243F00403DBB213702B4B00221A702A4B00221A70FB79184604F00EF80721172002F0DDFB2649172002F0B1FB0721182002F0D5FB2349182002F0A2
:400A4000A9FB0721152002F0CDFB2049152002F0A1FB0721002002F0C5FB1D49002002F099FB0721012002F0BDFB1A49012002F091FB0721022002F0B5FB1749022002F034
:400A800089FB07210C2002F0ADFB14490C2002F081FB00BF0837BD4680BD00BFA5430040B54300409D60004009600040106000409443004012600040F85100408460004064
:400AC00085600040ED170000D5100000E1170000F9160000411700008D170000B51B000080B584B000AF03460A46FB711346BB710023FB7306E0FB7B334A0121D154FB7B4C
:400B00000133FB73FB7B012BF5D9304AFB7913702F4B00221A702F4B00221A702E4B00221A702E4B00221A702D4B00221A702D4B00221A702C4B00221A702C4B4FF4000275
:400B40001A602A4B4FF080721A60284B4FF400121A60264B01221A60244B02221A60234B04221A60BB79002B02D0012B09D011E01F4A1F4B1B78DBB223F00103DBB213702F
:400B800011E01B4A1A4B1B78DBB243F00103DBB2137008E0164A164B1B78DBB243F00103DBB2137000BF134B03221A70124B80221A70012003F020FF104B04221A7000BFB1
:400BC0001037BD4680BD00BFA082FF1F0582FF1F0882FF1F2482FF1F2782FF1F1C82FF1F2682FF1F2982FF1F0482FF1F00E100E0096000402860004008600040126000401C
:400C000080B483B000AF0023FB7106E0FB79144A0121D154FB790133FB71FB79012BF5D9104B00221A70104B00221A700F4B00221A700F4B00221A700E4B00221A700E4B16
:400C400000221A700D4B00221A700D4B03221A700C4B80221A7000BF0C37BD4680BC7047A082FF1F0882FF1F2482FF1F2782FF1F1C82FF1F2682FF1F2982FF1F0482FF1FE0
:400C8000286000400860004080B400AF034B1B78DBB21846BD4680BC704700BF2782FF1F80B483B000AF0346FB71FA79064913465B0013449B000B4401331B78DBB2184665
:400CC0000C37BD4680BC70472C82FF1FB0B485B000AF03463960FB711346BB80FB79002B6DD0FB79082B6AD8B988FA79364813465B0013449B00034406331B889BB2C3F500
:400D0000007399420CD9FA792F4913465B0013449B000B4406331B889BB2C3F50073BB802A4CF979BB881B0A9BB2D8B2FA79264D13465B0013449B002B4403331B78DBB299
:400D40000343DAB20B0123441A70204AFB79B988C9B21B01134401330A461A703B68002B13D00023FB810CE01948FB79FA8939680A4412781B01034408331A70FB8901339C
:400D8000FB81FA89BB889A42EED3FA790E4913465B0013449B000B44013300221A700B48F979FA79084C13465B0013449B00234405331B78DAB20B01034402331A7000BFF4
:400DC0001437BD46B0BC70472C82FF1FFC5F00407060004080B582B000AF0023FB71314B1B79DBB2184600F067F80346BB712D4B1B78DBB25BB2002B15DA2A4B5B78DBB213
:400E0000212B00D048E0284B07221A80BA791346DB009B1A254A1344234A536000F0D4FA0346FB7138E01F4B5B78DBB2202B02D0222B1AD030E01C4B07221A80BA791346C7
:400E4000DB009B1A194A1344174A5360BB79BA7917498A5CD2B242F00102D1B2144AD15400F030FB0346FB7116E0BB790D4A9278D2B291B20F4A22F81310BB79BA790C4934
:400E80008A5CD2B242F00202D1B2094AD15400F0B7FB0346FB7100BFFB7918460837BD4680BD00BF006000401082FF1FD080FF1FEC81FF1F0082FF1F80B485B000AF034627
:400EC000FB710023FB73FF23BB7317E0FB7B104AD35C7B737A7B0F4913465B0013449B000B440A331B78DBB2FA799A4203D1FB7BBB730223FB73FB7B0133FB73FB7B012B0E
:400F0000E4D9BB7B18461437BD4680BC704700BFF481FF1F2C82FF1F80B485B000AF78600023FB8102E0FB890133FB81FB897A6813441B78002BF6D1FB8918461437BD46EA
:400F400080BC704780B584B000AF78600023BB81304B1B781A46304B9B5CFB727868FFF7DBFF0346FB81FA7A2C4913465B0013449B000B4408331B889BB2FA899A420AD922
:400F8000FA7A264913465B0013449B000B4408331B889BB200E0FB893B81BB897A68D1183A89FB7A1846FFF791FEFA893B89D31AFB81FB89002B0CD1FA7A184913465B001F
:400FC00013449B000B4408331B889BB23A899A4219D1BA893B891344BB8100BFFA7A0F4913465B0013449B000B4401331B78DBB2002BF3D0FB89002B05D1FB7A0022002163
:401000001846FFF763FEFB89002BACD100BF1037BD4680BDBD81FF1FF081FF1F2C82FF1F80B500AF054B1B781A46054B9B5CDBB21846FFF735FE0346184680BDBD81FF1F10
:40104000F081FF1F80B485B000AF78600B46FB701346BB707B68DB7803F00303FB737B689B785BB2002B1ADAFB7B032B0AD0BB7803F001031449FA78CA54BB7843F00103F3
:40108000BB701BE0BB789B08DBB203F001030F49FA78CA54BB7843F00403BB700EE0FB7B032B0BD0BB785B08DBB203F001030849FA78CA54BB7843F00203BB70BB781846A1
:4010C0001437BD4680BC7047F081FF1FF481FF1FF881FF1F80B582B000AF374B1B78BB71BB7903F01003002B62D00123FB7197F90630002B12DABB7903F00F03012B02D064
:401100000023FB711CE000F061F82C4B1B78DBB25BB2002B14DA0023FB7111E0BB7903F04003002B02D000F095F809E0BB7903F02003002B02D000F0B3F801E00023FB717F
:40114000FB79002B34D01C4B1B78BB7197F90630002B2DDB1A4B1B78DAB21A4B1B78DBB21343BB71184ABB791370174B1B78DBB2BA799A421CD1114B1B78FB710E4B1B7844
:40118000DBB223F07F03BB71BB79002B0AD10A4B0A4A1278D2B21A70074B1B78DBB203F00F03FB71054B1B78DBB2FA799A42E2D100BF0837BD4680BD286000402582FF1F46
:4011C0009A82FF1F2882FF1F2960004080B582B000AF1D4B1B78FB711B4AFB7913701A4B1B78FB7197F90730002B03DA174AFB79137025E0022000F045FA154B1B78DBB2EA
:4012000003F06003202B08D0402B0BD0002B0ED100F0D6FC0346FB710CE003F017FC0346FB7107E001F0DEFC0346FB7102E00023FB7100BFFB79002B02D1044B03221A70C0
:4012400000BF0837BD4680BD286000402582FF1F0060004080B500AF104B1B78DBB2062B19D801A252F823F0971200009712000085120000971200008B12000097120000AA
:401280009112000000F0F8F806E000F0A7F903E000F0D2F900E000BF00BF80BD0882FF1F80B500AF124B1B78DBB2062B1DD801A252F823F0EB120000EB120000D1120000F0
:4012C000EB120000D7120000EB120000DD12000000F0D8F80AE000F027F907E0032000F0D1F9044B03221A7000E000BF00BF80BD0882FF1F2582FF1F80B483B000AF00235F
:40130000FB71294B1B78DBB29AB2284B1B889BB213449AB2254B1A8015E02549FB79254A52681278D2B2CA54224B5B680133214A5360FB790133FB711E4B1B889BB2013BFA
:401340009AB21C4B1A801B4B1B889BB2002B02D0FB79072BE1D9144B1B78DBB2082B02D0FB79002B0FD0144B1B78DBB283F07F03DB43DAB2104B1A70104B0F221A70104BF7
:4013800002221A7005E00D4B02221A700C4B02221A700C4AFB791370034AFB79137000BF0C37BD4680BC70470482FF1F0682FF1F006000401082FF1F9A82FF1F2582FF1F6D
:4013C0000882FF1F2882FF1F80B582B000AF164B1B889BB2002B02D100F02EF81EE0134B02221A70124B00221A7000F06BF9114BDB79DBB29BB21B029AB20E4B9B79DBB2AE
:401400009BB21343FB80084B1B889BB2FA889A4202D2054AFB881380FFF76EFF012318460837BD4680BD00BF1082FF1F0882FF1F9A82FF1F0060004080B400AF094B022204
:401440001A70094B80221A70084B0F221A70084B00221A70074B00221A7001231846BD4680BC70470882FF1F9A82FF1F2582FF1F0482FF1F2882FF1F80B500AFFFF73CFFB7
:4014800000BF80BD80B500AF0A4B1B78DBB29AB2094B1B889BB213449AB2074B1A80074B00221A70012000F0EDF8054B03221A7000BF80BD0482FF1F0682FF1F0882FF1FD7
:4014C0002582FF1F80B582B000AF124B04221A70114B80221A7000F0F5F8104BDB79DBB29BB21B029AB20D4B9B79DBB29BB21343FB800B4B1B889BB2FA889A4202D2084ACC
:40150000FB881380074B0B221A70012318460837BD4680BD0882FF1F9A82FF1F006000401082FF1F2582FF1F80B483B000AF0023BB71234B1B78DBB203F00F03DBB2023BD2
:40154000FB71FB799AB21F4B1B889BB213449AB21C4B1A8018E01C4B5B681C49BA798A5CD2B21A70184B5B680133174A5360BB790133BB71FB79013BFB71134B1B889BB227
:40158000013B9AB2104B1A800F4B1B889BB2002B02D0FB79002BDED10D4AFB7913700D4B1B78DBB283F07F03DB43DAB2094B1A70094B0B221A7000BF0C37BD4680BC7047D3
:4015C000296000400682FF1F1082FF1F006000402882FF1F9A82FF1F2582FF1F80B500AF054B00221A70012000F04CF8034B03221A7000BF80BD00BF0882FF1F2582FF1F0B
:4016000080B400AF084B06221A70084B06221A70074B80221A70074B00221A7001231846BD4680BC704700BF0882FF1F2582FF1F9A82FF1F2882FF1F80B500AF0D4B1B78CC
:40164000DBB2002B0AD00C4A0A4B1B78DBB263F07F03DBB21370074B00221A70074B00221A70012000F00EF8054B03221A7000BF80BD00BF2682FF1F086000400882FF1F45
:401680002582FF1F80B483B000AF0346FB710B4B9B68002B0CD0094B9B68FA791A70074B9B68074A128892B25A80044B00229A6000BF0C37BD4680BC704700BF1082FF1FB6
:4016C0000682FF1F80B400AF094B00221A80094B9B68002B07D0074B9B6800221A70054B9B6800225A8000BFBD4680BC704700BF0682FF1F1082FF1F80B400AF0D4B012280
:401700001A700D4B9B7C0D4B1B7BDBB203F00303012B08D0094BDB7BDBB283F07F03DB43DAB2064BDA73054B01225A7300BFBD4680BC70470B600040FC5F00402C82FF1FBD
:4017400080B400AF0E4B02221A700E4B93F822300D4B1B7EDBB203F00303012B08D00A4BDB7EDBB283F07F03DB43DAB2064BDA76054B01225A7600BFBD4680BC704700BF9C
:401780000B600040FC5F00402C82FF1F80B400AF104B04221A70104B93F832300F4B93F82430DBB203F00303012B0AD00B4B93F82730DBB283F07F03DB43DAB2074B83F8EB
:4017C0002720064B012283F8252000BFBD4680BC704700BF0B600040FC5F00402C82FF1F80B400AF00BFBD4680BC704780B500AFFFF706FA00BF80BD80B582B000AF002341
:40180000FB71714B1B79BB716F4B1B78DBB25BB2002B6CDA6C4B5B78DBB2013B052B00F2BE8001A252F823F08B180000A5180000CF1800009F1900009F19000041180000A5
:40184000614BDB78DBB2212B0CD100F0C7F85F4B1B889BB2002B00F0A480FFF7B5FD0346FB719EE0584BDB78DBB2222B40F0998000F0F2F8554B1B889BB2002B00F09180A1
:40188000FFF7A2FD0346FB718BE000F02DF94F4B1B889BB2002B00F08680FFF795FD0346FB7180E0BB79012B7FD8474B9B78DBB2002B7AD1454B01221A80BB79444A134450
:4018C000424A5360FFF780FD0346FB716DE0BB79012B6CD83D4B01221A80BB793D4A13443A4A5360FFF770FD0346FB715FE0364B5B78DBB20A2B10D00B2B3DD0092B00D06E
:401900005CE000F0F1F8314B1B889BB2002B50D0FFF7D8FD0346FB714BE0BB79012B4AD8294B9B78DBB2002B45D1BB79264AD278D1B2274AD154BB79254AD35CDAB2BB79C0
:401940002549CB5CDBB29A4204D2BB79224A0021D1540CE0BB79204AD35CDBB2012B06D9BB79BA791A498A5CD1B21B4AD154FFF747FE0346FB711EE0BB79012B1DD8124BFF
:401980009B78DBB2012B18D8BB790F4A9278D1B2104AD154FFF734FE0346FB710DE000BF0CE000BF0AE000BF08E000BF06E000BF04E000BF02E000BF00E000BFFB791846F4
:4019C0000837BD4680BD00BF006000401082FF1FA882FF1FA082FF1FA482FF1F80B584B000AF194B1B78DBB2013BDBB2184600F041FFF860154B1B79FB72FB7A0233DB005C
:401A0000FA681344FB60FB685B68FB60FB7A104AD35CDBB2DB00FA681344FB60FB685B68FB60FB682033FB60FB685B687B607B681B78DBB29AB2074B1A80064A7B685360E3
:401A400000BF1037BD4680BD2782FF1F006000409882FF1F1082FF1F80B584B000AF1E4B1B78DBB2013BDBB2184600F003FFF8601A4B1B79FB72FB7A0233DB00FA6813441B
:401A8000FB60FB685B68FB60FB7A154AD35CDBB2DB00FA681344FB60FB685B68FB60FB681833FB60FB685B687B607B6801331B78DBB29BB21B029AB27B681B78DBB29BB203
:401AC00013439AB2074B1A807B680233054A536000BF1037BD4680BD2782FF1F006000409882FF1F1082FF1F80B584B000AF2D4B00221A802C4B1B78DBB2013BDBB218469F
:401B000000F0B8FEF860294BDB78FB72274B1B79BB72BB7A0233DB00FA681344FB60FB685B68FB60BB7A012B38D8BB7A204AD35CDBB2DB00FA681344FB60FB685B68FB602A
:401B4000FB7A002B2AD0FB7A032B27D8FB7A03F10053013BDB00FA681344FB60134B9B78FB72FB681B78FA7A9A4217D8FB685B687B60FA7A13465B0013449B001A467B68D1
:401B800013447B607B685B68064A53607B681A88044B1A807B689B68024A936000BF1037BD4680BD1082FF1F2782FF1F006000409882FF1F80B500AF01F09AFA00BF80BDBD
:401BC00080B586B000AF0023FB759D4B1B78FB7100233B619B4B00221A8097F90730002B80F20481964B5B78DBB20A2B00F21B8201A252F823F000BF431D0000272000009C
:401C000027200000272000002720000027200000251C000027200000B71D000027200000CD1D0000864BDB78DBB2012B0ED100F049FEB860BB685B68824A5360814B12228B
:401C40001A80FFF7C1FB0346FB75EEE17C4BDB78DBB2022B25D17A4B9B78DBB2184600F009FEB860BB68002B00F0DF81BB685B68744A5360734B5B6803331B78DBB29BB2DB
:401C80001B029AB26F4B5B6802331B78DBB29BB213439AB26B4B1A80FFF796FB0346FB75C3E1674BDB78DBB2032B45D10023FB73654B3B6109E03B691B78BB71BB793A69F0
:401CC00013443B61FB7B0133FB735D4B9B78DBB2FA7B9A4204D23B691B78DBB2002BEAD1574B9B78DBB2EE2B01D1584B3B61544B9B78DBB2002B0BD0514B9B78DAB2544B35
:401D00001B7C9A4204D1534800F0ACF9514B3B613B691B78DBB2002B00F087813B691B78DBB29AB2474B1A80464A3B695360FFF74BFB0346FB7578E102F088FE0346FB756A
:401D400073E1FB7903F00303002B20D0022B00D030E03C4B02221A80394B1B79DBB203F07F023D4913465B0013449B000B4402331B78DAB2394B1A70384B00225A70314B54
:401D8000364A5A60FFF720FB0346FB7512E02D4B02221A80324B1B78DAB2304B1A702F4B00225A70274B2D4A5A60FFF70DFB0346FB7500BF40E1234B01221A80214B294AAC
:401DC0005A60FFF701FB0346FB7535E11D4B01221A801B4B1B79DBB21A46234B1344194A5360FFF7F1FA0346FB7525E1144B5B78DBB2013B0A2B00F21A8101A252F823F024
:401E00000B1F00002F200000991F00002F2000002D1E00002F2000002F2000002F200000711E00002F200000C71E0000044B9B78DAB20E4B1A70FFF7E3FB0346FB75FBE0EE
:401E4000006000401082FF1FFC7F00003C810000A47F0000B082FF1F2C82FF1FC081FF1F2982FF1F2782FF1F9882FF1F2682FF1F744B9B787B717B79002B06D07B79013BCB
:401E8000DBB2184600F0F6FCB8607B79002B02D0BB68002B03D17B79002B40F0CA806A4B1B78DBB27A799A4208D0674A7B791370664B01221A70012000F0DCF9FFF7A0FB18
:401EC0000346FB75B5E000F055FE0346002B00F0B2805C4B1B793B715A4B1B79DAB25C4B1A703B795B4AD35CDAB23B795A49CB5CDBB29A4204D0554B01221A7000F08CFB4B
:401F0000FFF77EFB0346FB7595E0FB7903F00303012B20D0012B0CD3022B00D03BE0494B9B78DBB2002B31D100F078FD0346FB752CE0444B9B78DBB2012B29D1474B1B7853
:401F4000DBB223F00203DAB2444B1A70FFF758FB0346FB751CE03B4B1B79DBB2012B19D8384B9B78DBB2DB43DBB2364A1279D2B2114610463A4A125CD2B21340DAB2384B73
:401F80005A54FFF73DFB0346FB7503E000BF53E000BF51E000BF4FE0FB7903F00303012B20D0012B0CD3022B00D03BE0254B9B78DBB2002B31D100F0BDFC0346FB752CE082
:401FC000204B9B78DBB2012B29D1244B1B78DBB243F00203DAB2214B1A70FFF711FB0346FB751CE0174B1B79DBB2012B19D8154B9B78DBB2DB43DBB2124A1279D2B21146A3
:402000001046174A125CD2B21340DAB2144B5A54FFF7F6FA0346FB7503E000BF0CE000BF0AE000BF08E000BF06E000BF04E000BF02E000BF00E000BFFB7D18461837BD461F
:4020400080BD00BF006000402782FF1F2482FF1F1C82FF1F0C82FF1F9882FF1F2982FF1F9C82FF1FB0B58AB000AF7860324B07F114041D460FCD0FC42B682370002387F807
:4020800026307B68002B52D07B6822221A707B68013303221A7007F10C03184601F0C6F8022387F827303EE097F827307A68134497F8262007F128010A4412F81C2C120926
:4020C000D2B207F128010A4412F8142C1A7097F8273001337A68134400221A7097F8273002337A68134497F8262007F128010A4412F81C2C02F00F0207F128010A4412F8B4
:40210000142C1A7097F8273003337A68134400221A7097F82630013387F8263097F82730043387F8273097F82730212BBCD900BF2837BD46B0BD00BF907F000090B482B05A
:4021400000AF0123FB7180E0464AFB791B0113440C221A70FA79444913465B0013449B000B4405331B78DBB2002B1CD0FA793E4913465B0013449B000B4404331B78DBB2E7
:402180005BB2002B07DA394AFB791B01134402330C221A700EE0354AFB791B011344023308221A7006E0314AFB791B011344023380221A702B48F979FA792B4C13465B0046
:4021C00013449B00234406331B889BB2DAB20B01034406331A702348F979FA79224C13465B0013449B00234406331B889BB21B0A9BB2DAB20B01034407331A701948F979DF
:40220000FA79194C13465B0013449B00234406331B889BB2DAB20B01034404331A701148F979FA79104C13465B0013449B00234406331B889BB21B0A9BB2DAB20B010344CF
:4022400005331A70FB790133FB71FB79082B7FF67BAF074BFF221A7000BF0837BD4690BC704700BF706000402C82FF1FFC5F00400A60004080B58AB000AF0346FB7100236B
:402280007B84002387F8273050E097F82720B34913465B0013449B000B4400221A7097F82720AE4913465B0013449B000B44023300221A7097F82720A84913465B0013440E
:4022C0009B000B44033300221A7097F82720A34913465B0013449B000B44083300221A8097F827209D4913465B0013449B000B440A3300221A7097F82720984913465B005F
:4023000013449B000B44013300221A7097F82720924913465B0013449B000B44053300221A7097F82730013387F8273097F82730082BAAD9FB79002B16D0002387F82530EA
:402340000EE097F82530864A0021D15497F82530844A0021D15497F82530013387F8253097F82530012BECD97F4B1B78DBB2002B00F04A810023FB767B4B1B78DBB2013B36
:40238000DBB2184600F076FA78617B695B683B613B6907331B7803F04003002B08D0734B1B78DBB243F00103DAB2704B1A7007E06E4B1B78DBB223F00103DAB26B4B1A7083
:4023C0007B6908337B617B691B7887F82730012387F82530B6E07B695B68FB61002387F82630A3E097F82520FB699B7803F07F039A4240F0938097F82520584913465B0081
:4024000013449B000B4408331B889AB2FB699B889A420CD297F82520FB6998884F4913465B0013449B000B44083302461A80FB691B781A464A4B9B5CDAB2FB695B789A426C
:402440006CD197F82520FB699878444913465B0013449B000B44043302461A7097F82520FB69D8783D4913465B0013449B000B4402461A70FB69DB7803F00303FB73FB69F5
:402480009B785BB2002B1CDA97F82520FB7B012B01D1072000E00D20304913465B0013449B000B44053302461A7097F825202B4913465B0013449B000B44013301221A70C9
:4024C0001BE097F82520FB7B012B01D1052000E00920224913465B0013449B000B44053302461A7097F825201C4913465B0013449B000B44013300221A70FB699B790A2B46
:4025000003D0FB699B79022B08D1FA7E97F825301946F869FEF796FD0346FB76FB690833FB6197F82630013387F8263097F8262097F827309A42FFF455AF97F8253001335D
:4025400087F8253097F82530082B7FF644AF7B695B68FB61002387F8253020E02C82FF1F9882FF1F0C82FF1F2782FF1F2982FF1FFB699B7803F07F02FB6918782449134629
:402580005B0013449B000B440A3302461A70FB690833FB6197F82530013387F8253097F8252097F827309A42E2D300F09DF90246184B1A6000237B84012387F827301DE07A
:4025C00097F82720124913465B0013449B000B4406337A8C1A8097F827200D4913465B0013449B000B4408331B889AB27B8C13447B8497F82730013387F8273097F827305E
:40260000082BDDD9FFF79AFD00BF2837BD4680BD2C82FF1F2082FF1F90B585B000AF8F4B1B78DBB2002B00F015818C4B1B78DBB2013BDBB2184600F01DF978607B6808334C
:402640007B607B681B78FB707B685B68BB60844B1B78BB700023FB73F7E0BB681B78BA789A4240F0EC80BB787E4AD35CDAB2BB685B789A4240F0E380BB689B7803F07F03C2
:402680007B70BB68DB7803F003033B707A78764913465B0013449B000B44033300221A707A78BB689878704913465B0013449B000B44043302461A707A78BB68D8786A4999
:4026C00013465B0013449B000B4402461A707A78BB689888644913465B0013449B000B44083302461A80BB689B785BB2002B1ADA7A783B78012B01D1072000E00D205A4943
:4027000013465B0013449B000B44053302461A707A78554913465B0013449B000B44013301221A7019E07A783B78012B01D1052000E009204C4913465B0013449B000B44E0
:40274000053302461A707A78474913465B0013449B000B44013300221A70444A7B781B011344023301221A70404879787A783E4C13465B0013449B00234408331B889BB2F5
:402780001B0A9BB2DAB20B0103441A70374879787A78354C13465B0013449B00234408331B889BB2DAB20B01034401331A70304879787A782C4C13465B0013449B002344A6
:4027C00006331B889BB2DAB20B01034406331A70274879787A78244C13465B0013449B00234406331B889BB21B0A9BB2DAB20B01034407331A701E4879787A781A4C1346F9
:402800005B0013449B00234406331B889BB2DAB20B01034404331A70154879787A78124C13465B0013449B00234406331B889BB21B0A9BB2DAB20B01034405331A70BB6811
:402840000833BB60FB7B0133FB73FA7BFB789A42FFF403AF00BF1437BD4690BD2782FF1F1C82FF1F9882FF1F2C82FF1FFC5F00407060004080B485B000AF0346FB710F4BCE
:402880001B78DBB20E4ADB0013445B68FB60FB681033FB60FB681B78FA799A4202D30023FB6005E0FB79DB00FA6813445B68FB60FB6818461437BD4680BC70470582FF1F05
:4028C0003481000080B400AF054B1B78DBB2054ADB0013445B681846BD4680BC704700BF0582FF1F3481000080B584B000AF104B1B78DBB2013BDBB21846FFF7BBFFB8609D
:40290000BB68002B0DD0BB685B681B79FB71FB790233DB00BA681344BB60BB685B68FB6001E00023FB60FB6818461037BD4680BD2782FF1F80B582B000AF0023FB71344B9B
:402940001B79DBB203F07F03BB71BB79002B5AD0BB79082B57D8BA79B9792E480B465B000B449B00034402331B78DBB243F00103D8B2284913465B0013449B000B4402330D
:4029800002461A70BA79234913465B0013449B000B44033300221A70BA79B9791D480B465B000B449B00034401331B78DBB243F00203D8B2174913465B0013449B000B44BD
:4029C000013302461A70BA79124913465B0013449B000B4404331B78DBB25BB2002B07DA0D4ABB791B01134402338D221A7006E0094ABB791B011344023389221A70FEF733
:402A0000FFFD0346FB71FB7918460837BD4680BD006000402C82FF1FFC5F004080B582B000AF0023FB71504B1B79DBB203F07F03BB71BB79002B00F09280BB79082B00F2D1
:402A40008E80BA79B97949480B465B000B449B00034402331B78DBB223F00103D8B2434913465B0013449B000B44023302461A70BA793E4913465B0013449B000B44033312
:402A800000221A703A49BB793948BA79120102441278D2B202F07F02D2B21B010B441A70BA79B97931480B465B000B449B00034401331B78DBB223F00203D8B22B4913462E
:402AC0005B0013449B000B44013302461A70BA79264913465B0013449B000B4404331B78DBB25BB2002B1BDABA79204913465B0013449B000B4401331B78DBB2012B07D130
:402B00001B4ABB791B01134402330C221A7022E0174ABB791B01134402330D221A701AE0BA79124913465B0013449B000B4401331B78DBB2012B07D10D4ABB791B011344D1
:402B4000023308221A7006E0094ABB791B011344023309221A70FEF753FD0346FB71FB7918460837BD4680BD006000402C82FF1FFC5F004080B584B000AF0023FB73154B47
:402B80001B79BB73144B1B78DBB2013BDBB21846FFF770FEB860BB685B681B79FB71BA7BFB799A4202D9BB7B022B0ED8BB7BBA7B0A498A5CD1B20A4AD154BB7B054A927873
:402BC000D1B2064AD1540123FB73FB7B18461037BD4680BD006000402782FF1F9882FF1F0C82FF1F80B582B000AF0023FB710F4B1B78DBB25BB2002B12DA0C4B5B78DBB2AB
:402C0000012B00D00CE00A4B0A4A5A60094B1B789AB2074B1A80FEF7D7FB0346FB7100BFFB7918460837BD4680BD00BF006000401082FF1F5081000080B500AF282000F0A2
:402C400073FA032000F0D0F9052000F06DFA032000F0CAF90F2000F067FA032000F0C4F9012000F061FA022000F0BEF9052000F05BFA062000F0A6F80E2000F0A3F82C2011
:402C800000F0A0F8082000F09DF8012000F09AF80C2000F097F8032000F094F8052000F043FA00BF80BD00BF80B500AF0C2000F089F8024B01221A7000BF80BDC281FF1F0D
:402CC00080B500AF064B1B78002B04D1FFF7B4FF034B01221A70FFF7E7FF00BF80BD00BFC381FF1F80B582B000AF03460A46FB711346BB71FB79032B26D801A252F823F02F
:402D0000112D00001F2D00002D2D00003B2D0000BB79803BDBB2184600F054F815E0BB79403BDBB2184600F04DF80EE0BB796C3BDBB2184600F046F807E0BB792C3BDBB27C
:402D4000184600F03FF800E000BF00BF0837BD4680BD00BF80B584B000AF78600123FB737B681B78BB730BE0BB7B184600F010F8FB7B7A6813441B78BB73FB7B0133FB730D
:402D8000BB7B002BF0D100BF1037BD4680BD00BF80B584B000AF0346FB7100F02DF8FB791B09FB73FB7B184600F0E2F8FB7903F00F03FB73FB7B184600F0DAF800BF1037E3
:402DC000BD4680BD80B584B000AF0346FB7100F013F8FB791B09FB73FB7B184600F004F9FB7903F00F03FB73FB7B184600F0FCF800BF1037BD4680BD80B582B000AF4FF4C6
:402E0000CA737B60554A554B1B78DBB223F07F03DBB21370524B1B78DBB223F00F03FB704F4AFB7843F00F03DBB213704D4B1B78DBB223F00F03FB704A4AFB7813704A4B61
:402E40001B78DBB223F00F03FB70474AFB781370424A424B1B78DBB223F02003DBB213703E4A3E4B1B78DBB243F04003DBB21370002000F07BF9394A384B1B78DBB243F008
:402E80001003DBB21370012000F070F9374B1B78FB70324A314B1B78DBB223F01003DBB21370002000F062F9FB7803F00803FB702A4A2A4B1B78DBB243F01003DBB2137001
:402EC000012000F053F9254A244B1B78DBB223F01003DBB21370FB78002B02D10A2000F045F97B68013B7B60FB78002B02D07B68002BBDD1194A194B1B78DBB223F0400335
:402F0000DBB21370154A154B1B78DBB223F07F03DBB21370124A124B1B78DBB223F00F03DBB213700F4B1B78DBB223F00F03FB700C4AFB7843F00F03DBB213700A4B1B78DF
:402F4000DBB223F00F03FB70074AFB7843F00F03DBB2137000BF0837BD4680BD205100402251004023510040245100402151004080B582B000AF0346FB711A4A194B1B7838
:402F8000DBB243F02003DBB21370164A154B1B78DBB223F04003DBB21370002000F0E6F8104A104B1B78DBB223F00F03DBB213700C490C4B1B78DAB2FB791343DBB243F08B
:402FC0001003DBB20B70012000F0D0F8054A054B1B78DBB223F01003DBB2137000BF0837BD4680BD2051004080B582B000AF0346FB71154A144B1B78DBB223F06003DBB24D
:403000001370114A104B1B78DBB223F00F03DBB213700D490C4B1B78DAB2FB791343DBB243F01003DBB20B70012000F09FF8064A054B1B78DBB223F01003DBB2137000BF34
:403040000837BD4680BD00BF2051004080B586B000AF78600A23FB75FB7D07F118021344002203F8102CFB7D013BFB751CE079681E4BA3FB0123DA0813469B0013445B00E4
:40308000CA1AD3B23033BB75FB7D07F118021344BA7D03F8102C7B68144AA2FB0323DB087B60FB7D013BFB757B68092BDFD879680E4BA3FB0123DA0813469B0013445B008D
:4030C000CA1AD3B23033BB75FB7D07F118021344BA7D03F8102CFB7D07F1080213441846FFF738FE00BF1837BD4680BDCDCCCCCC80B400AF054B1B78DBB203F040039B097E
:40310000DBB21846BD4680BC704700BF8F45004080B483B000AF0346FB7101BE00BF0C37BD4680BC704700BF80B582B000AF786008E00C4B1B68184601F05EFC7B68A3F5C6
:4031400000437B607B68B3F5004FF2D8064B1B687A6802FB03F3184601F04EFC00BF0837BD4680BDF880FF1FF080FF1F80B582B000AF0346FB80FB88054A127802FB03F3C0
:40318000184601F039FC00BF0837BD4680BD00BFF480FF1F80B584B000AF03463960FB710F4B1B68FB60FB791F2B02D90020FFF7AFFFFB7903F01F0310339B00FA681344E1
:4031C0001B68BB60FB7903F01F0310339B00FA6813443A681A60BB6818461037BD4680BD08ED00E080B582B000AF03460A46FB711346BB71BB79072B02D90020FFF788FF9A
:40320000FB791F2B02D90020FFF782FFFB7903F01F0303F1604303F56443BA795201D2B21A7000BF0837BD4680BD00BF80B483B000AF7860264B1B78DBB21A467B681A60D2
:40324000244B1B78DBB21B027A6812681A437B681A60214B1B78DBB21B047A6812681A437B681A601D4B1B78DBB21B067A6812681A437B681A607B680433194A1278D2B281
:403280001A60184B1B78DBB21A027B6804337968043109680A431A60134B1B78DBB21A047B6804337968043109680A431A600F4B1B78DBB21A067B6804337968043109684E
:4032C0000A431A6000BF0C37BD4680BC704700BF0301004904010049EC460040020100490101004900010049050100490601004980B500AF064B1B78002B04D100F00AF809
:40330000034B01221A7000F043F800BF80BD00BFC481FF1F80B582B000AF1B4B1B78DBB223F03F03FB71184AFB7943F00903DBB21370164A154B1B78DBB243F00103DBB223
:403340001370FF2000F034F8FF2000F04FF8872000F05CF8002000F069F801F06CFB0346BB710A4A094B1B78DBB243F01003DBB21370BB79184601F062FB00F029F800BF42
:403380000837BD4680BD00BF786400409865004080B400AF054A054B1B78DBB263F07F03DBB2137000BFBD4680BC70477864004080B483B000AF0346FB71044AFB7913700E
:4033C00000BF0C37BD4680BC704700BF0865004080B500AF01E000F045F800F037F8034603F01003002BF6D100BF80BD80B483B000AF0346FB71044AFB79137000BF0C3709
:40340000BD4680BC704700BF4865004080B483B000AF0346FB71044AFB79137000BF0C37BD4680BC704700BF2865004080B483B000AF0346FB71044AFB79137000BF0C3744
:40344000BD4680BC704700BF8865004080B400AF034B1B78DBB21846BD4680BC704700BF6865004080B400AF034B1B78DBB21846BD4680BC704700BF5865004080B500AFB4
:40348000064B1B78002B04D100F00AF8034B01221A7000F043F800BF80BD00BFC581FF1F80B582B000AF1B4B1B78DBB223F03F03FB71184AFB7943F00903DBB21370164A0F
:4034C000154B1B78DBB243F00103DBB21370FF2000F034F8FF2000F04FF8DC2000F05CF8002000F069F801F0A6FA0346BB710A4A094B1B78DBB243F01003DBB21370BB796B
:40350000184601F09CFA00F029F800BF0837BD4680BD00BF796400409964004080B400AF054A054B1B78DBB263F07F03DBB2137000BFBD4680BC70477964004080B483B07E
:4035400000AF0346FB71044AFB79137000BF0C37BD4680BC704700BF0964004080B500AF01E000F045F800F037F8034603F01003002BF6D100BF80BD80B483B000AF034691
:40358000FB71044AFB79137000BF0C37BD4680BC704700BF4964004080B483B000AF0346FB71044AFB79137000BF0C37BD4680BC704700BF2964004080B483B000AF0346C3
:4035C000FB71044AFB79137000BF0C37BD4680BC704700BF8964004080B400AF034B1B78DBB21846BD4680BC704700BF6964004080B400AF034B1B78DBB21846BD4680BCD7
:40360000704700BF5964004080B500AF064B1B78002B04D100F00AF8034B01221A7000F043F800BF80BD00BFC681FF1F80B582B000AF1B4B1B78DBB223F03F03FB71184A58
:40364000FB7943F00903DBB21370164A154B1B78DBB243F00103DBB21370FF2000F034F8FF2000F04FF8872000F05CF8002000F069F801F0E0F90346BB710A4A094B1B78F9
:40368000DBB243F01003DBB21370BB79184601F0D6F900F029F800BF0837BD4680BD00BF7A6500409B65004080B400AF054A054B1B78DBB263F07F03DBB2137000BFBD461F
:4036C00080BC70477A65004080B483B000AF0346FB71044AFB79137000BF0C37BD4680BC704700BF0B65004080B500AF01E000F045F800F037F8034603F01003002BF6D1EF
:4037000000BF80BD80B483B000AF0346FB71044AFB79137000BF0C37BD4680BC704700BF4B65004080B483B000AF0346FB71044AFB79137000BF0C37BD4680BC704700BF0F
:403740002B65004080B483B000AF0346FB71044AFB79137000BF0C37BD4680BC704700BF8B65004080B400AF034B1B78DBB21846BD4680BC704700BF6B65004080B400AF2B
:40378000034B1B78DBB21846BD4680BC704700BF5B65004080B500AF064B1B78002B04D100F00AF8034B01221A7000F043F800BF80BD00BFC781FF1F80B582B000AF1B4B0B
:4037C0001B78DBB223F03F03FB71184AFB7943F00903DBB21370164A154B1B78DBB243F00103DBB21370FF2000F034F8FF2000F04FF8DC2000F05CF8002000F069F801F069
:403800001AF90346BB710A4A094B1B78DBB243F01003DBB21370BB79184601F010F900F029F800BF0837BD4680BD00BF7B6500409A65004080B400AF054A054B1B78DBB247
:4038400063F07F03DBB2137000BFBD4680BC70477B65004080B483B000AF0346FB71044AFB79137000BF0C37BD4680BC704700BF0A65004080B500AF01E000F045F800F036
:4038800037F8034603F01003002BF6D100BF80BD80B483B000AF0346FB71044AFB79137000BF0C37BD4680BC704700BF4A65004080B483B000AF0346FB71044AFB791370D6
:4038C00000BF0C37BD4680BC704700BF2A65004080B483B000AF0346FB71044AFB79137000BF0C37BD4680BC704700BF8A65004080B400AF034B1B78DBB21846BD4680BC5E
:40390000704700BF6A65004080B400AF034B1B78DBB21846BD4680BC704700BF5A65004080B582B002AF414B01221A70404B00221A70102000F0D0FD102000F0B3FE072131
:403940001D20FFF74FFC3B4B04221A703A4B00221A703A4B00221A70394A394B1B78DBB243F01803DBB21370364B00221A70364B00221A70354B00221A70354B0A221A70F0
:40398000344B00221A70344B00221A70334B12221A70334B13221A70324B00221A70324B14221A700123009308234FF4004248F66B51022000F096FB0223009310234FF4A0
:4039C000004249F2DA01002000F08CFB0323009310234FF4004249F2DA01002000F082FB0423009310234FF4004249F2DA01002000F078FB1D4A0D4B1B78DBB2013B1C4939
:403A00009B000B449B7813701A4A084B1B78DBB2013B174931F823301380044B1B78DBB2184600F057F900BFBD4680BDFC80FF1FC881FF1F96580040975800409E580040E4
:403A4000075B004093580040885B0040895B004080580040815800408358004088580040895800408D580040014E00400E4E0040D081FF1F0C4E004080B582B000AF00F046
:403A8000DAFF0346FB71444B1B78BB71434A434B1B78DBB243F00103DBB213703F4A3F4B1B78DBB243F01003DBB213703C4A3C4B1B78DBB243F00103DBB21370384A384BA6
:403AC0001B78DBB243F01003DBB21370354A354B1B78DBB243F00203DBB21370324A324B1B78DBB243F00203DBB213702F4A2F4B1B78DBB243F00303DBB213700320FFF713
:403B000035FB284A274B1B78DBB223F00203DBB21370254A244B1B78DBB223F00203DBB21370234A224B1B78DBB243F00603DBB21370204B7A221A701F4A1F4B1B78DBB239
:403B400043F00203DBB213701C4A1C4B1B78DBB243F00203DBB21370194A194B1B78DBB243F00103DBB21370164A164B1B78DBB243F00103DBB21370134B4FF000521A6009
:403B8000124B4FF000521A60FB79184600F057FF00BF0837BD4680BDFC80FF1FAA430040BA430040F8460040F9460040915800407758004082580040A1430040B14300409C
:403BC000A2430040B243004080E200E000E100E080B500AF084B1B78002B09D1074B1B78DBB2002B01D1FFF79BFE034B01221A70FFF742FF00BF80BDCA81FF1FCB81FF1F9A
:403C000080B400AF054A054B1B78DBB243F00103DBB2137000BFBD4680BC7047004E004080B485B000AF0346FB710D4B1B78DBB2002B03D00B4B1B78FB7305E00A4B1B78F1
:403C4000DBB203F00103FB73FB7B012B02D0FB79002BEAD0FB7B18461437BD4680BC7047C981FF1FC881FF1F014E004080B483B000AF124B1B78DBB203F00303FB71104BBF
:403C80001B78DBB2BB71FB79022B02D10D4B1B7804E0FB79032B01D10B4B1B780B4B1B78DBB2002B02D00A4B00221A7097F9063018460C37BD4680BC704700BF144E0040E6
:403CC000104E0040114E0040124E0040C981FF1FC881FF1F80B582B000AF0346FB71C34B00221A70FB79012B66D1C14B38221A70C04B04221A70C04B06221A70BF4B002228
:403D00001A70BF4B00221A70BE4B0F221A70BE4B00221A70BD4B00221A70BD4B00221A70BC4B01221A70BC4B14221A70BB4B05221A70BB4B16221A70BA4B00221A70BA4BB2
:403D400044221A70B94B48221A70B94B01221A70B84B01221A70B84B11221A70B74B19221A70B74B97221A70522000F073FAB54B58221A70B44B00221A70B44B05221A7000
:403D8000B34B02221A70B34B00221A70B24B00221A70002000F0CEFAB04B33221A6001210F2000F0DBFA012140F28F1000F0BCFBAB491D20FFF7EEF9FB79022B66D18C4BF5
:403DC00038221A708B4B04221A708B4B06221A708A4B00221A708A4B00221A70894B3F221A70894B00221A70884B00221A70884B00221A70874B01221A70874B50221A7045
:403E0000864B27221A70864B2C221A70854B00221A70854B55221A70844B5A221A70844B05221A70834B01221A70834B11221A70824B19221A70824B97221A70442000F097
:403E400009FA804B58221A707F4B00221A707F4B05221A707E4B02221A707E4B00221A707D4B00221A70002000F064FA7B4B4FF47A421A6001210F2000F070FA0121632022
:403E800000F052FB77491D20FFF784F9FB79032B66D1574B38221A70564B04221A70564B06221A70554B00221A70554B00221A70544B3F221A70544B00221A70534B002225
:403EC0001A70534B00221A70524B01221A70524B50221A70514B27221A70514B2C221A70504B00221A70504B55221A704F4B5A221A704F4B05221A704E4B01221A704E4B7B
:403F000011221A704D4B19221A704D4B97221A70442000F09FF94B4B58221A704A4B00221A704A4B05221A70494B02221A70494B00221A70484B00221A70002000F0FAF9BB
:403F4000464B4FF47A421A6001210F2000F006FA0121632000F0E8FA43491D20FFF71AF9FB79042B40F0A980214B38221A70214B04221A70204B06221A70204B00221A7011
:403F80001F4B00221A701F4B3F221A701E4B00221A701E4B00221A701D4B00221A701D4B01221A701C4B50221A701C4B27221A701B4B2C221A701B4B00221A701A4B55227A
:403FC0001A701A4B5A221A70194B05221A70194B01221A70184B11221A70184B19221A70174B97221A70442040E000BFC981FF1F004E0040024E0040034E0040044E0040CD
:40400000054E0040064E0040084E0040094E00400A4E0040144E0040845800408558004086580040875800408A5800408B5800408C5800408E5800408F580040905800409E
:404040009158004094580040955800409A5800409B5800409C5800409D580040AC82FF1FD1420000DD420000E942000000F0F2F8144B58221A70144B00221A70134B05227A
:404080001A70134B02221A70124B00221A70124B00221A70002000F04DF9104B4FF47A421A6001210F2000F059F90121632000F03BFA0B491D20FFF76DF800BF0837BD46E4
:4040C00080BD00BF94580040955800409A5800409B5800409C5800409D580040AC82FF1FF542000090B587B000AF0446084611461A462346FB710346BB800B467B801346A2
:40410000BB7197F82830002B00F08B8097F82830042B00F28680FB79013B092B4AD801A252F823F04D410000B5410000B54100004D410000B5410000B54100006741000096
:4041400081410000B54100009B410000BB790F2B04D9374B1B78DBB2FB752EE0354B1B78DBB2FB7529E0BB790F2B04D9324B1B78DBB2FB7521E0314B1B78DBB2FB751CE0C6
:40418000BB790F2B04D92E4B1B78DBB2FB7514E02C4B1B78DBB2FB750FE0BB790F2B04D9294B1B78DBB2FB7507E0284B1B78DBB2FB7502E00023FB7500BFBA8897F917303B
:4041C0005B0113443B617B883A6902FB03F3FB60FB68DB0BBB82BB790D2B12D8BA8ABB79C3F10E0342FA03F3BB8297F82830013BBA790132D1B2164A9B0013440A469A703C
:4042000007E097F82830013B114A9B0013440F229A7097F82830013B0D49BA8A21F8232002E00020FEF774FF00BF1C37BD4690BD180100491C010049190100491D01004975
:404240001A0100491E0100491B0100491F010049D081FF1F80B584B000AF0346FB7100F0EAFB0346FB73174A164B1B78DBB243F00303DBB21370144A134B1B78DBB243F0A2
:404280000303DBB21370114AFB7913700320FEF76DFF0C4A0B4B1B78DBB223F00303DBB21370094A084B1B78DBB223F00303DBB21370FB7B184600F0C2FB00BF1037BD46A4
:4042C00080BD00BFF8460040F94600409258004080B400AF00BFBD4680BC704780B400AF00BFBD4680BC704780B400AF00BFBD4680BC704780B400AF00BFBD4680BC70473B
:4043000080B582B000AF0023FB7106E0FB791846FCF74CF9FB790133FB71FB79012BF5D9034BFF221A7000BF0837BD4680BD00BFFD80FF1F80B582B000AF0346FB71FFF714
:40434000DFFFFB791846FCF711F9034AFB79137000BF0837BD4680BDFD80FF1F80B584B000AF03460A46FB8013467B7100F0CEF80346FB7300F0A4F80346BB81FA88BB89BE
:404380009A4200F08880464B1B78DBB203F00103FB72FB7B002B20D1BB89002B02D0FB88002B1AD1BB89002B0BD13E4AFB8813803D4A3D4B1B78DBB223F04003DBB213702A
:4043C00069E0394A384B1B78DBB243F04003DBB21370344AFB8813805DE0FB7A002B33D0324B00221A70324B01221A70314B00221A70314A304B1B78DBB203F07F03DBB2C1
:404400001370294B1B78DBB203F00803002B02D0FB88002B18D1294ABB891380234B07221A7000BF214B1B78DBB203F00103002BF8D11B4A1A4B1B78DBB223F00103DBB2A4
:4044400013701A4B00221A70154B1B78DBB203F00103002B13D0194AFB881380134A7B79002B01D0032300E00123137000BF0F4B1B78DBB203F00103002BF8D10BE0094A4E
:40448000FB8813800649064B1B78DAB2FB7A1343DBB20B70FFE700BF1037BD4680BD00BFA24300408040004082400040014000401040004014400040084000400240004093
:4044C00080B400AF034B1B889BB21846BD4680BC704700BF8040004080B483B000AF0346FB710949084B1B78DBB25AB297F9073023F007035BB213435BB2DBB20B7000BFD1
:404500000C37BD4680BC70478240004080B400AF044B1B78DBB203F00703DBB21846BD4680BC70478240004080B584B000AF03460A46FB8013467B7100F0CEF80346FB7330
:4045400000F0A4F80346BB81FA88BB899A4200F08880464B1B78DBB203F00203FB72FB7B002B20D1BB89002B02D0FB88002B1AD1BB89002B0BD13E4AFB8813803D4A3D4B16
:404580001B78DBB223F04003DBB2137069E0394A384B1B78DBB243F04003DBB21370344AFB8813805DE0FB7A002B33D0324B00221A70324B02221A70314B00221A70314A15
:4045C000304B1B78DBB203F07F03DBB21370294B1B78DBB203F00803002B02D0FB88002B18D1294ABB891380234B07221A7000BF214B1B78DBB203F00103002BF8D11B4A6F
:404600001A4B1B78DBB223F00203DBB213701A4B00221A70154B1B78DBB203F00203002B13D0194AFB881380134A7B79002B01D0032300E00123137000BF0F4B1B78DBB28A
:4046400003F00103002BF8D10BE0094AFB8813800649064B1B78DAB2FB7A1343DBB20B70FFE700BF1037BD4680BD00BFA14300400441004006410040014000401440004039
:4046800010400040084000400240004080B400AF034B1B889BB21846BD4680BC704700BF0441004080B483B000AF0346FB710949084B1B78DBB25AB297F9073023F0070327
:4046C0005BB213435BB2DBB20B7000BF0C37BD4680BC70470641004080B400AF044B1B78DBB203F00703DBB21846BD4680BC70470641004080B400AF00BFBD4680BC704774
:4047000080B582B000AF0F2000F06AF800F05AF800F091F90346FB71074A074B1B78DBB243F01003DBB21370FB79184600F087F900BF0837BD4680BD9D64004080B500AFB3
:4047400000F0AEF84FF4004000F0D8F8064B1B78002B04D1FFF7CEFF034B01221A70FFF7CFFF00BF80BD00BFE081FF1F80B582B000AF00F0D3F80346FB80FB88A3F50043CD
:404780009BB2BB80B7F9043018460837BD4680BD80B584B000AF0346FB80B7F90630002B04DBFB88A3F50043FB8103E0FB88A3F50043FB81FB89184600F0A0F800BF1037DD
:4047C000BD4680BD80B400AF044B1B78DBB203F00F03DBB21846BD4680BC70476D64004080B483B000AF0346FB71044AFB79137000BF0C37BD4680BC704700BF8D64004038
:4048000080B582B000AF1C4B1B78DBB223F00703FB71194AFB791370174B1B78DBB223F00303FB71144AFB79137000F0B3F84FF4004000F08FF84FF4004000F05FF800201D
:4048400000F040F800F04EF84FF4004000F092F800F0F1F80346BB71084A084B1B78DBB243F01003DBB21370BB79184600F0E7F800BF0837BD4680BD7B6400409C64004076
:4048800080B400AF054A054B1B78DBB263F07F03DBB2137000BFBD4680BC70477B64004080B500AF064B1B78002B04D1FFF7A8FF034B01221A70FFF7E3FF00BF80BD00BFAA
:4048C000E181FF1F80B483B000AF0346FB71044AFB79137000BF0C37BD4680BC704700BF8C64004080B400AF034B1B78DBB21846BD4680BC704700BF6C64004080B483B066
:4049000000AF0346FB80044AFB88138000BF0C37BD4680BC704700BF1468004080B400AF044B1B78044B1B889BB21846BD4680BC704700BF0A6400409468004080B400AF49
:40494000034B1B889BB21846BD4680BC704700BF9468004080B483B000AF0346FB80044AFB88138000BF0C37BD4680BC704700BF5468004080B483B000AF0346FB80044A91
:40498000FB88138000BF0C37BD4680BC704700BF7468004080B500AF01E0FFF7CFFFFFF7A1FF034603F04003002BF6D100BF80BD80B400AF034B1B78DBB21846BD4680BC94
:4049C000704700BF6A64004080B400AF034B1B78DBB21846BD4680BC704700BF6864004080B400AF034B1B78DBB21846BD4680BC704700BF69650040142816D902B401214E
:404A000014381049097811F0C001890904B40E4A515C04BC00BF00BF00BF8841FDD500BF00BF02BC704700BF00BF70F10400FCD570470B050709EFF3108072B6704780F365
:404A40001088704700480040324A000080B582B000AF0023BB711F4B1B78DBB203F00303012B02D0022B04D012E01A4B1B79FB7111E0184B1B79DBB203F07F021649134604
:404A80005B0013449B000B440A331B78FB7102E00023FB7100BFFB79022B15D80F4B1A68FB7913441B78022B06D0032B09D1FCF7A3FE0346BB7107E0FCF78CF90346BB713E
:404AC00002E00023BB7100BFBB7918460837BD4680BD00BF006000402C82FF1F2082FF1F81F0004102E000BF83F0004330B54FEA41044FEA430594EA050F08BF90EA020FF9
:404B00001FBF54EA000C55EA020C7FEA645C7FEA655C00F0E2804FEA5454D4EB5555B8BF6D420CDD2C4480EA020281EA030382EA000083EA010180EA020281EA0303362D96
:404B400088BF30BD11F0004F4FEA01314FF4801C4CEA113102D0404261EB410113F0004F4FEA03334CEA133302D0524263EB430394EA050F00F0A780A4F10104D5F1200E9F
:404B80000DDB02FA0EFC22FA05F2801841F1000103FA0EF2801843FA05F359410EE0A5F120050EF1200E012A03FA0EFC28BF4CF0020C43FA05F3C01851EBE37101F00045B9
:404BC00007D54FF0000EDCF1000C7EEB00006EEB0101B1F5801F1BD3B1F5001F0CD349085FEA30004FEA3C0C04F101044FEA445212F5800F80F09A80BCF1004F08BF5FEAD8
:404C0000500C50F1000041EB045141EA050130BD5FEA4C0C404141EB010111F4801FA4F10104E9D191F0000F04BF01460020B1FA81F308BF2033A3F10B03B3F120020CDAAF
:404C40000C3208DD02F1140CC2F10C0201FA0CF021FA02F10CE002F11402D8BFC2F1200C01FA02F120FA0CFCDCBF41EA0C019040E41AA2BF01EB0451294330BD6FEA0404C0
:404C80001F3C1CDA0C340EDC04F11404C4F1200220FA04F001FA02F340EA030021FA04F345EA030130BDC4F10C04C4F1200220FA02F001FA04F340EA0300294630BD21FAFA
:404CC00004F0294630BD94F0000F83F4801306BF81F480110134013D4EE77FEA645C18BF7FEA655C29D094EA050F08BF90EA020F05D054EA000C04BF1946104630BD91EA4E
:404D0000030F1EBF0021002030BD5FEA545C05D14000494128BF41F0004130BD14F580043CBF01F5801130BD01F0004545F0FE4141F470014FF0000030BD7FEA645C1ABFFD
:404D4000194610467FEA655C1CBF0B46024650EA013406BF52EA033591EA030F41F4002130BD00BF90F0000F04BF0021704730B54FF4806404F132044FF000054FF00001C4
:404D800050E700BF90F0000F04BF0021704730B54FF4806404F1320410F0004548BF40424FF000013EE700BF42004FEAE2014FEA31014FEA02701FBF12F07F4393F07F4F43
:404DC00081F06051704792F0000F14BF93F07F4F704730B54FF4607401F0004521F0004120E700BF50EA010208BF704730B54FF000050AE050EA010208BF704730B511F0B5
:404E0000004502D5404261EB41014FF4806404F132045FEA915C3FF4DCAE4FF003025FEADC0C18BF03325FEADC0C18BF033202EBDC02C2F1200300FA03FC20FA02F001FAA2
:404E400003FE40EA0E0021FA02F11444C1E600BF70B54FF0FF0C4CF4E06C1CEA11541DBF1CEA135594EA0C0F95EA0C0F00F0DEF82C4481EA030621EA4C5123EA4C5350EA12
:404E8000013518BF52EA033541F4801143F4801338D0A0FB02CE4FF00005E1FB02E506F00042E0FB03E54FF00006E1FB03569CF0000F18BF4EF0010EA4F1FF04B6F5007F71
:404EC00064F5407404D25FEA4E0E6D4146EB060642EAC62141EA55514FEAC52040EA5E504FEACE2EB4F1FD0C88BFBCF5E06F1ED8BEF1004F08BF5FEA500E50F1000041EB6C
:404F0000045170BD06F0004646EA010140EA020081EA0301B4EB5C04C2BFD4EB0C0541EA045170BD41F480114FF0000E013C00F3AB8014F1360FDEBF002001F0004170BD15
:404F4000C4F10004203C35DA0C341BDC04F11404C4F1200500FA05F320FA04F001FA05F240EA020001F0004221F0004110EBD37021FA04F642EB06015EEA430E08BF20EA5B
:404F8000D37070BDC4F10C04C4F1200500FA04F320FA05F001FA04F240EA020001F0004110EBD37041F100015EEA430E08BF20EAD37070BDC4F1200500FA05F24EEA020E35
:404FC00020FA04F301FA05F243EA020321FA04F001F0004121FA04F220EA020000EBD3705EEA430E08BF20EAD37070BD94F0000F0FD101F00046400041EB010111F4801F5A
:4050000008BF013CF7D041EA060195F0000F18BF704703F00046520043EB030313F4801F08BF013DF7D043EA0603704794EA0C0F0CEA135518BF95EA0C0F0CD050EA41066E
:4050400018BF52EA4306D1D181EA030101F000414FF0000070BD50EA410606BF1046194652EA430619D094EA0C0F02D150EA013613D195EA0C0F05D152EA03361CBF1046E5
:4050800019460AD181EA030101F0004141F0FE4141F470014FF0000070BD41F0FE4141F4780170BD70B54FF0FF0C4CF4E06C1CEA11541DBF1CEA135594EA0C0F95EA0C0F65
:4050C00000F0A7F8A4EB050481EA030E52EA03354FEA013100F088804FEA03334FF0805545EA131343EA12634FEA022245EA111545EA10654FEA00260EF000419D4208BF22
:40510000964244F1FD0404F5407402D25B084FEA3202B61A65EB03055B084FEA32024FF480104FF4002CB6EB020E75EB030E22BFB61A754640EA0C005B084FEA3202B6EBA1
:40514000020E75EB030E22BFB61A754640EA5C005B084FEA3202B6EB020E75EB030E22BFB61A754640EA9C005B084FEA3202B6EB020E75EB030E22BFB61A754640EADC0034
:4051800055EA060E18D04FEA051545EA16754FEA06164FEAC30343EA52734FEAC2025FEA1C1CC0D111F4801F0BD141EA00014FF000004FF0004CB6E711F4801F04BF014394
:4051C0000020B4F1FD0C88BFBCF5E06F3FF6AFAEB5EB030C04BFB6EB020C5FEA500C50F1000041EB045170BD0EF0004E4EEA113114EB5C04C2BFD4EB0C0541EA045170BD30
:4052000041F480114FF0000E013C90E645EA060E8DE60CEA135594EA0C0F08BF95EA0C0F3FF43BAF94EA0C0F0AD150EA01347FF434AF95EA0C0F7FF425AF104619462CE79B
:4052400095EA0C0F06D152EA03353FF4FDAE1046194622E750EA410618BF52EA43067FF4C5AE50EA41047FF40DAF52EA43057FF4EBAE12E74FF0FF3C06E000BF4FF0010C48
:4052800002E000BF4FF0010C4DF804CD4FEA410C7FEA6C5C4FEA430C18BF7FEA6C5C1BD001B050EA410C0CBF52EA430C91EA030F02BF90EA020F0020704710F1000F91EAF0
:4052C000030F58BF994208BF90422CBFD8176FEAE37040F0010070474FEA410C7FEA6C5C02D150EA013C07D14FEA430C7FEA6C5CD6D152EA033CD3D05DF8040B704700BF72
:405300008446104662468C461946634600E000BF01B5FFF7B7FF002848BF10F1000F01BD4DF808EDFFF7F4FF0CBF012000205DF808FB00BF4DF808EDFFF7EAFF34BF01205A
:4053400000205DF808FB00BF4DF808EDFFF7E0FF94BF012000205DF808FB00BF4DF808EDFFF7CEFF94BF012000205DF808FB00BF4DF808EDFFF7C4FF34BF012000205DF818
:4053800008FB00BF4FEA4102B2F1E04324BFB3F5001CDCF1FE5C0DD901F0004C4FEAC0024CEA5070B2F1004F40EB830008BF20F00100704711F0804F21D113F13872BCBFED
:4053C00001F00040704741F480114FEA5252C2F11802C2F1200C10FA0CF320FA02F018BF40F001004FEAC1234FEAD32303FA0CFC40EA0C0023FA02F34FEA4303CCE77FEA25
:40540000625307D150EA01331EBF4FF0FE4040F44000704701F0004040F0FE4040F40000704700BF4FF0FF0C1CEAD0521EBF1CEAD15392EA0C0F93EA0C0F6FD01A4480EAF4
:40544000010C400218BF5FEA41211ED04FF0006343EA501043EA5111A0FB01310CF00040B1F5000F3EBF490041EAD3715B0040EA010062F17F02FD2A1DD8B3F1004F40EBA8
:40548000C25008BF20F00100704790F0000F0CF0004C08BF49024CEA502040EA51207F3AC2BFD2F1FF0340EAC250704740F400004FF00003013A5DDC12F1190FDCBF00F08F
:4054C00000407047C2F10002410021FA02F1C2F1200200FA02FC5FEA310040F1000053EA4C0308BF20EADC70704792F0000F00F0004C02BF400010F4000F013AF9D040EACA
:405500000C0093F0000F01F0004C02BF490011F4000F013BF9D041EA0C018FE70CEAD15392EA0C0F18BF93EA0C0F0AD030F0004C18BF31F0004CD8D180EA010000F00040D1
:40554000704790F0000F17BF90F0004F084691F0000F91F0004F14D092EA0C0F01D142020FD193EA0C0F03D14B0218BF084608D180EA010000F0004040F0FE4040F400002D
:40558000704740F0FE4040F4400070474FF0FF0C1CEAD0521EBF1CEAD15392EA0C0F93EA0C0F69D0A2EB030280EA010C49024FEA402037D04FF0805343EA111143EA101315
:4055C0000CF000408B4238BF5B0042F17D024FF4000C8B4224BF5B1A40EA0C00B3EB510F24BFA3EB510340EA5C00B3EB910F24BFA3EB910340EA9C00B3EBD10F24BFA3EBB3
:40560000D10340EADC001B0118BF5FEA1C1CE0D1FD2A3FF650AF8B4240EBC25008BF20F0010070470CF0004C4CEA50207F32C2BFD2F1FF0340EAC250704740F400004FF02C
:405640000003013A37E792F0000F00F0004C02BF400010F4000F013AF9D040EA0C0093F0000F01F0004C02BF490011F4000F013BF9D041EA0C0195E70CEAD15392EA0C0F5C
:4056800008D142027FF47DAF93EA0C0F7FF470AF084676E793EA0C0F04D14B023FF44CAF08466EE730F0004C18BF31F0004CCAD130F000427FF45CAF31F000437FF43CAFE1
:4056C0005FE700BF4FEA4002B2F1FE4F0FD34FF09E03B3EB12620DD94FEA002343F0004310F0004F23FA02F018BF404270474FF00000704712F1610F01D1420205D110F0EB
:40570000004008BF6FF0004070474FF000007047014B1868704700BF6081FF1F0E4B70B51E460E4C0025E41AA410A54204D056F8253098470135F8E702F0D0FD084B094C09
:405740001E46E41AA4100025A54204D056F8253098470135F8E770BDE8820000E8820000E8820000F082000010B5431E0A44914204D011F8014B03F8014FF8E710BD03460F
:405780000244934202D003F8011BFAE770472DE9F04788B0149F002B1E461299B8BF03F1004327F02007B6BF1E4600232D23462F1446109DDDF84CA00B7003D0452F03D1D0
:4057C000013501E0032300E0022307AA049206AA03928DE828042246334600F011FD472F804602D1119BDB0728D5462F08EB050911D198F80030302B0AD1002200232046C8
:405800003146FFF78DFD18B9C5F10105CAF80050DAF8003099440022002320463146FFF77FFD08B9302202E0CDF81C9006E0079B994503D9591C07911A70F8E74046079B19
:40584000159AC8EB0303136008B0BDE8F087034673B50029B8BF494203F8022BB4BF2D222B22092942701ADD0DF1070216460A2591FBF5F405FB1411092C01F1300102F84D
:40588000011D2146F4DC3031541E02F8011CB4421A460AD214F8012B03F8012BF7E71A463024214402F8024B5970101A02B070BD2DE9F04F91B00C46DDF8688016461F46A2
:4058C000054601F035FA03681846099300F003FC00230E93D8F800300A90073323F0070303F1080294F81890D4F800B0C8F80020D3E90023C4E91223D4F84CA0D4F8488099
:405900002AF000430B934FF0FF32A74B40460B9901F062FFA0B94FF0FF32A34B40460B99FFF712FD60B90022002340465146FFF701FD10B12D2384F843309C4B9C4A0AE082
:40594000424653464046514601F046FF002800F09281984B984AB9F1470F8CBF90469846032323612BF0040323604FF0000A3DE0B9F1670F00F08A81B9F1470F00F08681FD
:4059800023600193636800210DF13302059002920093424653460691CDF81090CDF80CE02846FFF7F4FE09F0DF03472B804600F08481B9F1650F0D9900F28D8101394A463B
:4059C00004F150000D91FFF742FF0E9A82468318012A236100F37C812268D10700F178819DF8333013B12D2384F84330009733460FAA2146284600F09FF9013002D14FF033
:405A0000FF3096E123685A0501D4236965E0B9F1650F40F2D580D4E9120100220023FFF77FFC78B30123654A31462846B8470130E5D00E9B0D9A9A420BDB2368D80708D4E5
:405A400023689B0740F111814FF0000804F1190906E10A9B099A31462846B8470130CED04FF0000804F11A090E9B013B9845E7DA01234A4631462846B8470130BFD008F1C3
:405A80000108F1E70D9B002B29DC01234B4A31462846B8470130B2D00D9B23B90E9B13B92368D907CCD50A9B099A31462846B8470130A4D04FF0000904F11A0A0D9B5B4261
:405AC000994509DA0123524631462846B847013095D009F10109F1E70E9B4246A7E00E9AA36D9A42A8BF1A46002A914606DC4FF0000A29EAE97904F11A0B11E01346314644
:405B000042462846B8470130F1D178E701235A4631462846B84701303FF471AF0AF1010AA36DC9EB03029245F0DB08EB03090D9A0E9B9A420FDB2368DA070CD40E9B0D9AD0
:405B40009844C9EB08089B1A9845A8BF9846B8F1000F08DC0FE00A9B099A31462846B8470130EBD14BE743464A4631462846B84701303FF444AF4FF0000928EAE87804F1D5
:405B80001A0A09E00123524631462846B84701303FF435AF09F101090D9A0E9B9B1AC8EB03039945EEDB4BE7FFFFEF7F7A8100007E81000082810000868100008A810000DA
:405BC0000E9A012A01DCDB0738D50123424631462846B84701303FF412AF0A9B099A31462846B84701303FF40AAFD4E9120100220023FFF795FB20B14FF0000804F11A093D
:405C00000EE00E9B08F10102013B19E001234A4631462846B84701303FF4F1AE08F101080E9B013B9845F1DB534604F1500231462846B84701307FF403AFE0E642460123E5
:405C400031462846B8470130EED1D8E601234A4631462846B84701303FF4D1AE08F10108E3680F9A9B1A9845F0DBE0680F9B9842B8BF18465DE062680EA8531C0DF1340EB7
:405C80004BF480637FF474AE062201E012B90122626075E6002106910DF133018DE80C00236005904246CDF81090CDF80CE0029153462846FFF76BFD80460D9BD81C02DBC1
:405CC000626893421DDDA9F102095FFA89F970E60133236184E6B9F1660F14D10029636807DD216113B92268D2071DD501330B4419E013B92268D00701D5023313E00123C9
:405D000011E04FF067090D9B0E9A934205DB22682361D10708D5013305E0002BD4BFC3F102030123134423610D9B4FF0000AA36556E611B0BDE8F08F2DE9F04791461F46C9
:405D40000A698B6806469342B8BF1346C9F8003091F843200C46DDF8208012B10133C9F800302368990642BFD9F800300233C9F80030256815F0060510D104F1190A07E071
:405D80000123524639463046C04701301AD00135E368D9F800209B1A9D42F1DB94F843302268003318BF012392060FD5E118302081F843005A1C94F845102244023382F89A
:405DC000431003E04FF0FF30BDE8F08704F1430239463046C0470130F4D02268D9F80050E36802F00602042A08BF5D1B2269A3680CBF25EAE57500259342C4BF9B1AED185A
:405E00004FF000091A344D4509D00123224639463046C0470130D5D009F10109F3E70020BDE8F0872DE9F04317460A7E85B06E2A984606460C460C9B01F1430E00F0AE806A
:405E400011D8632A22D009D8002A00F0BB80582A40F0CA8081F84520834955E0642A1ED0692A1CD0C0E0732A00F0B08009D86F2A2ED0702A40F0B8800A6842F020020A60A7
:405E80003EE0752A24D0782A3AD0ADE01A6801F14205111D1960136884F84230A8E021681A6811F0800F02D0111D196008E011F0400F02F10401196002D0B2F9003000E05B
:405EC0001368002B3CDA2D225B4284F8432037E021681A6811F0800F02D0111D196007E011F0400F02F10401196001D0138800E01368227E5C496F2A14BF0A2208221BE07F
:405F000078225A4984F845202268186812F0800F00F104051D6003D1550601D5038800E00368D00744BF42F0200222601BB9226822F0200222601022002084F8430001E0A0
:405F400049490A226568002DA56008DB206820F0040020602BB9002D7DD175460CE0002B79D07546B3FBF2F002FB1033CB5C05F8013D03460028F5D1082A0BD12368DA074D
:405F800008D5236962689A42DEBF302305F8013C05F1FF35C5EB0E0323612EE008681A6810F0800F496903D0101D1860136808E010F0400F02F104001860136801D019807A
:405FC00000E0196000232361754616E01A68111D1960156800216268284600F0B5FE08B1401B6060636804E004F1420584F8422001232361002384F84330CDF800803B4631
:4060000003AA21463046FFF797FE013002D14FF0FF3026E023692A4639463046C0470130F5D023689B0710D5002504F1190907E001234A4639463046C0470130E7D00135E2
:40604000E368039A9B1A9D42F2DBE068039B9842B8BF184605E00B7804F1420584F842308AE705B0BDE8F0838C8100009D8100000EB400B54FF402719CB0ADF814106FF0A6
:406080000041049107914FF6FF711DAB02900690084853F8042BADF81610006802A9019301F048FA029B00221A701CB05DF804EB03B070476081FF1F024610B513461C78A2
:4060C0000132002CFAD1013B11F8012B03F8012F002AF9D110BD034613F8012B002AFBD1181A013870472DE9F74F03690C6980469C427FDC013C01F114074FEA840E00F13F
:40610000140606EB0E0357F82450019356F824300135B3FBF5F507EB0E09C5B34FF0000A3846B446D34650F8043B9AB205FB02A21B0C4FEA124A05FB03A392B2C2EB0B0B41
:40614000BCF800204FEA134A5A441FFA83FBDCF800308145CBEB134303EB224392B242EA03424FEA234B4CF8042BDCD256F80E306BB9019B043B9E421A4602D3C8F810402A
:4061800005E01268043B002AF8D1013CF3E7404600F0F5FF00282BDB304601354FF0000E57F8042B036891B2C1EB0E0E120C99B27144C2EB134303EB214389B24FEA234E5A
:4061C000B94541EA034340F8043BE9D256F8242006EB840362B9043B9E421A4602D3C8F8104005E01268043B002AF8D1013CF3E7284600E0002003B0BDE8F08F0000000088
:406200002DE9F04F456A95B08246219CCDE9022345B9102000F090FDCAF82400456085600560C560DAF82430196859B15A68012393404A608B60504600F0C9FDDAF824309F
:4062400000221A60039BA04A002BBDBF01232360039B0023BCBF23F000430393DDF80C80A8BF236028F000431B0D1B0593421DD142F20F73209A1360029B43B9934A944B9B
:40628000C8F31300002814BF1846104600E09048229B002B00F04685C37813B100F1080300E0C31C229A136000F03CBDDDE902450022002320462946FFF732F8074658B197
:4062C000209A01231360229B002B00F01E8581481860013800F026BD12AB019313AB009322462B46504600F0C5FFC8F30A56049056B1C5F3130343F07F51204641F440114D
:40630000A6F2FF3611971DE0139B129E1E4406F23243202B0ADD029A06F21240C3F1400322FA00F008FA03F3184304E0C3F12000029B03FA00F0FEF715FD0123A1F1F871E8
:40634000013E11930022644BFEF7CEFB58A3D3E90023FEF77DFD58A3D3E90023FEF7C6FB044630460D46FEF70DFD55A3D3E90023FEF76EFD02460B4620462946FEF7B6FB75
:4063800004460D4601F03EFA00228346002320462946FEF7CFFF58B15846FEF7F3FC02460B4620462946FEF7BBFF08B90BF1FF3BBBF1160F0DD8DDE90223484901EBCB01E8
:4063C000D1E90001FEF7D4FF30B10BF1FF3B002300E00123109300E01090129B9E1B731E079343BFC3F10008002307934FF00008BBF1000F06DB079BCDF82CB05B4407934E
:40640000002705E00023CBEB0808CBF100070B931E9B092B28D8052BC4BF043B1E931E9BC8BF0025A3F10203D8BF0125032B20D8DFE803F0060E0204012302E0012308E0AF
:4064400000230A931F9B002B1DDD9946059321E000230A931F9B0BEB030909F10103012B0593B8BF012315E0012500231E930A9501E001230A934FF0FF390022CDF81490FA
:4064800012231F9206E04FF001094B46CDF81490CDF87C90DAF8244000226260042101F114029A421CD86268490001326260F6E761436F63A787D23FB3C8608B288AC63F2E
:4064C000FB799F501344D33F0000F07FAE810000B78100008B8100000000F83FC88100006168504600F03EFCDAF8243020601B680693059B0E2B00F25B81002D00F0588186
:40650000DDE90234BBF1000FCDE90E3430DD9F4A0BF00F034FEA2B1502EBC303E80618CBCDE908340CD5DDE90E01994B05F00F05D3E90823FEF7B6FD0324CDE9020100E0C8
:406540000224934E6DB1E90708D5DDE90801D6E90023FEF77DFCCDE9080101346D100836F0E7DDE90823DDE90201FEF79BFD20E0CBF1000505B3DDE90E01844B05F00F021A
:4065800003EBC203D3E90023FEF762FCCDE902017F4E2D110023022455B1EA0705D5D6E90023FEF755FC013401236D100836F3E71BB1CDE9020100E00224109BE3B1DDE972
:4065C00002560022734B28463146FEF7B3FE98B1059B8BB1B9F1000F40F3E6800BF1FF330893314600226C4B2846FEF731FC0134CDE902014E4602E0059ECDF820B02046B6
:40660000FEF7C0FBDDE90223FEF722FC634B0022FEF76CFAA1F1507304460C931D46D6B9DDE9020100225E4BFEF75EFA22460C9BCDE90201FEF79CFE002840F03F820C995B
:40664000224601F10043DDE90201FEF773FE002840F02B82A8E00A9A4C4B711E002A49D003EBC103D3E9002300204E49FEF71AFD22462B46FEF738FACDE90C01069CDDE935
:40668000020101F0BFF80546FEF77CFB02460B46DDE90201FEF728FADDE90C23303504F8015BCDE90201FEF745FE002840F01D83DDE9022300203749FEF716FADDE90C23DF
:4066C000FEF738FE002840F0D180069BE31AB3426ADADDE90C0100222F4BFEF7B9FB0022CDE90C01DDE902012B4BFEF7B1FBCDE90201C4E703EBC1012246D1E900012B466A
:40670000FEF7A6FB069BCDE90C011D469C19DDE9020101F077F80646FEF734FB02460B46DDE90201FEF7E0F9303605F8016BAC42CDE902014FF0000222D11A4BDDE90C019C
:40674000FEF7D4F902460B46DDE90201FEF710FE002840F08B80DDE90C2300201149FEF7C3F902460B46DDE90201FEF7E3FDD8B114F8013C621E302B40F0B7821446F7E7EA
:40678000054BFEF765FBCDE90201C0E7C8810000A08200000000F03F0000244000001C40000014400000E03FDDE90E34CDE90234139B002B7CDBBBF10E0F79DCAB4B03EBE1
:4067C000CB03D3E900671F9B002B14DA059B002B11DC40F06C810022A54B30463946FEF737FBDDE90223FEF7B9FD059D2E46002840F05F8165E1069CDDE9028932463B46BC
:4068000040464946FEF74EFC00F0FCFF0546FEF7B9FA32463B46FEF71BFB0B46024649464046FEF761F905F1300E069B04F801EBC3EB040E059B73452DD102460B46FEF7C4
:4068400055F98046894602460B4630463946FEF771FD78B942464B4630463946FEF760FD002800F04482EB0704D440E2DDF820B000E01C4614F8012C631E392A07D1069A6D
:406880009A42F6D1069930220BF1010B0A701A7801321A702BE20022764BFEF7D9FA0022002380468946FEF73BFD0028A6D01EE20A9A002A2BD01E9A012A0ADC119A12B116
:4068C00003F2334302E0129BC3F136033D46444613E0059B5D1EAF42BFBF0B9BEA1B9B180B93059BB6BF2F467D1B0025002BA7BF4446059BC3EB08040023079A01211A442B
:4069000050469844079200F001FB064602E03D4644460A9E5CB1079B002B08DDA342A8BF2346079AC3EB0808E41AD31A0793002F1DDD0A9BABB18DB131462A46504600F050
:406940007FFB049A01460646504600F0E8FA04990890504600F03BFA089B04937A1B06D000E03A460499504600F06AFB04900121504600F0CBFA0B9B05465BB31A460146E0
:40698000504600F05DFB1E9B0546012B18DC029B83B9039BC3F3130373B9039B23F000473F0D3F054FB1079B08F1010801330793012702E0002700E0029F0B9B73B100E010
:4069C00000272B6905EB8303186900F052FAC0F1200004E01E9B012BD9DD0B9F0120079B184410F01F0008D0C0F12003042B02DDC0F11C0002E006D018461C30079B804422
:406A0000034404440793B8F1000F05DD42460499504600F063FB0490079B002B05DD29461A46504600F05AFB0546109B23B32946049800F0A4FB00281EDA00230A2204992B
:406A4000504600F0DBF90A9B0BF1FF3B0490002B00F05F81314600230A22504600F0CEF9B9F1000F06463FDC3BE000BFC88100000000144000002440059B002B2BDC1E9BB9
:406A8000022B28DDDDF81490B9F1000F11D129464B460522504600F0B1F901460546049800F06DFB00280CDC03E0354600E000252E461F9B069C6FEA030B09E03546DDF8D0
:406AC00020B0069B069A5C1C312313700BF1010B05960026F7E00A9BDDF8149023B9069CB2E01E9B022BCFDC002C05DD31462246504600F0F3FA06469FB17168504600F07C
:406B000031F90446326906F10C01023292000C30FEF72AFE01222146504600F0DFFA059000E00596029B069F03F00103079329460498FFF7D8FA3146044600F130080498FE
:406B400000F01DFB059A02902946504600F033FBC36802463BB901460A90049800F00FFB0A9A034600E00123114650460A9300F02EF90A9B53B91E9A42B9079A32B9B8F1B0
:406B8000390F2AD0029B002B1CDC1DE0029A002A04DB1BD11E9ACAB9079ABAB9002B13DD01220499504600F099FA2946049000F0E6FA002803DC07D118F0010F04D0B8F1BB
:406BC000390F0AD004F131087C1C0CE0002B07F101040BDDB8F1390F03D139233B70013756E008F1010887F800806CE0069B2746E31A4B4504F8018C3BD000230A2204990F
:406C0000504600F0FBF8059B04909E424FF00A024FF000033146504604D100F0EFF80646059084E700F0EAF8002306460A220599504600F0E3F8059079E700230A220499E8
:406C4000504600F0DBF8049029460498FFF74BFA069B00F1300804F8018BE31A4B45ECDB069B0596B9F1010FACBF4B4401331F46002601220499504600F030FA2946049019
:406C800000F07DFA002803DC15D118F0010F12D03C4614F8013C621E392B09D1069B934204D10BF1010B3123069A02E01446F0E70133137007E03C4614F8013C621E302B5F
:406CC00001D11446F8E72946504600F080F8059B6BB12EB19E4203D03146504600F077F80599504600F073F801E0DDF820B00499504600F06CF80023209A23700BF1010356
:406D00001360229B1BB11C6001E008480AE0069808E0B9F1000F3FF7E2AE1E9B022B7FF7DEAEB1E615B0BDE8F08F00BF8A810000004870476481FF1F024B0146186800F083
:406D400041BB00BF6081FF1F10B5C9B202449042034605D01C7801308C42F8D1184610BD002010BD70B5456A04460E463DB91020FFF7E2FF6062456085600560C560656A5B
:406D8000EB6843B1636ADB6853F8260078B1026843F8262017E021220421204600F0B8FA636AE860DB68002BECD1002070BD012101FA06F56A1D9200204600F0A9FA0028B1
:406DC000F3D04660856000230361C36070BD70B5446A06460D463CB91020FFF7ADFF7062446084600460C4603DB1736A6A68DB6853F82210296043F8225070BD2DE9F0414C
:406E000006460C460D691F4601F1140E0023DEF80000013381B202FB0171000C0F0C02FB007089B201EB00419D424FEA10474EF8041BECDCD7B1A3689D4212DB61683046C0
:406E40000131FFF78FFF8046226904F10C01023292000C30FEF788FC21463046FFF7B7FF444604EB850301355F6125612046BDE8F081030C1B0413B90004102300E00023D8
:406E800010F07F4F04BF0002083310F0704F04BF0001043310F0404F04BF80000233002803DB420003D5581C70471846704720207047036813F007020BD0D90722D49A0723
:406EC0004BBF5B089B08036003604CBF01200220704799B209B91B0C102213F0FF0F04BF1B0A0832190704BF1B090432990704BF9B080232D90702D45B0805D00132036023
:406F000010467047002070472020704710B50C460121FFF727FF01224461026110BD2DE9F74F14460A69236988469A42BEBF0B46A0461C46D8F81070D4F81090D8F80830F0
:406F4000D8F8041007EB09069E42C8BF0131FFF709FF00F114052B4605EB860C0022634502D243F8042BFAE704F1140208F1140102EB890301EB87070093009B019293420D
:406F800057D9B2F800B0BBF1000F23D08946AE464FF0000859F8044BBEF800A0A3B20BFB03A34FEA144ADEF8004043444FEA14480BFB0A84F24604EB13449BB243EA0443FC
:406FC0004F454FEA14484AF8043B01D9D646E1E7CEF80480019B0432B3F802A0BAF1000F21D02C4689462B684FF00008B9F800E0B4F802B09BB20AFB0EBEA346F04443EAA3
:4070000008434BF8043B59F8043BB4F804E01B0C0AFB03E34F4503EB18434FEA134801D95C46E3E763600435A7E75CF8043D13B9013E002EF9DC066103B0BDE8F08F00002F
:407040002DE9F843154612F0030206460F4607D0214C013A002354F82220FFF7CFFE0746AD1036D0746A3CB91020FFF765FE7062446084600460C460D6F82480D8F80840F1
:407080004CB940F271213046FFF740FF04460023C8F8080003604FF00008EB070AD5394622463046FFF73BFF814639463046FFF78EFE4F466D100CD0206808B10446ECE795
:4070C000224621463046FFF72AFF2060C0F80080F4E73846BDE8F883908200002DE9F0470C460746914626694FEA621A56444968A368751CAB4202DA01315B00FAE7384646
:40710000FFF730FE002380461A4600F11401534503DA41F823200133F9E72AEAEA73206901EB830319F01F0904F1140101EB800E14D0C9F1200C002208689A4600FA09F087
:40714000024343F8042B51F8042B8E4522FA0CF2F2D8CAF8042042B1B51C06E0043B51F8042B8E4543F8042FF9D8013D3846C8F810502146FFF72BFE4046BDE8F087036968
:407180000A6910B59B1A11D192001430143183180A4453F8044D52F8041D8C4202D007D3012010BD9842F4D3002010BD184610BD4FF0FF3010BD2DE9F8430C460746114652
:4071C00020461546FFF7DBFF061E08D131463846FFF7C8FD012303614661BDE8F883BCBF23462C4638466168BABF1D4601260026FFF7B8FD2B69C660266905F1140904F140
:40720000140101EB860709EB830800F114054FF0000C51F8042B59F8044B93B29C44A3B2240CC3EB0C03C4EB124202EB23429BB24FEA224CC84543EA02428E4645F8042B66
